{
  "contractName": "DiplomaStore",
  "abi": [
    {
      "anonymous": false,
      "inputs": [
        {
          "indexed": true,
          "internalType": "address",
          "name": "_university",
          "type": "address"
        },
        {
          "indexed": false,
          "internalType": "string",
          "name": "_cnp",
          "type": "string"
        },
        {
          "indexed": false,
          "internalType": "string",
          "name": "_city",
          "type": "string"
        },
        {
          "indexed": false,
          "internalType": "string",
          "name": "_emailStudent",
          "type": "string"
        },
        {
          "indexed": false,
          "internalType": "string",
          "name": "_degree",
          "type": "string"
        },
        {
          "indexed": false,
          "internalType": "string",
          "name": "_hashValue",
          "type": "string"
        }
      ],
      "name": "LogDiplomaAdded",
      "type": "event"
    },
    {
      "anonymous": false,
      "inputs": [
        {
          "indexed": true,
          "internalType": "address",
          "name": "_university",
          "type": "address"
        },
        {
          "indexed": false,
          "internalType": "bool",
          "name": "_stop",
          "type": "bool"
        }
      ],
      "name": "LogEmergencyStop",
      "type": "event"
    },
    {
      "constant": true,
      "inputs": [
        {
          "internalType": "address",
          "name": "",
          "type": "address"
        },
        {
          "internalType": "uint256",
          "name": "",
          "type": "uint256"
        }
      ],
      "name": "university",
      "outputs": [
        {
          "internalType": "string",
          "name": "cnp",
          "type": "string"
        },
        {
          "internalType": "string",
          "name": "city",
          "type": "string"
        },
        {
          "internalType": "string",
          "name": "emailStudent",
          "type": "string"
        },
        {
          "internalType": "string",
          "name": "degree",
          "type": "string"
        },
        {
          "internalType": "string",
          "name": "hashValue",
          "type": "string"
        }
      ],
      "payable": false,
      "stateMutability": "view",
      "type": "function"
    },
    {
      "constant": false,
      "inputs": [
        {
          "internalType": "address",
          "name": "x",
          "type": "address"
        }
      ],
      "name": "toString",
      "outputs": [
        {
          "internalType": "string",
          "name": "",
          "type": "string"
        }
      ],
      "payable": false,
      "stateMutability": "nonpayable",
      "type": "function"
    },
    {
      "constant": false,
      "inputs": [
        {
          "internalType": "string",
          "name": "_cnp",
          "type": "string"
        },
        {
          "internalType": "string",
          "name": "_city",
          "type": "string"
        },
        {
          "internalType": "string",
          "name": "_emailStudent",
          "type": "string"
        },
        {
          "internalType": "string",
          "name": "_degree",
          "type": "string"
        },
        {
          "internalType": "string",
          "name": "_hashValue",
          "type": "string"
        }
      ],
      "name": "addDiploma",
      "outputs": [],
      "payable": false,
      "stateMutability": "nonpayable",
      "type": "function"
    }
  ],
  "bytecode": "0x608060405234801561001057600080fd5b506112f1806100206000396000f3fe608060405234801561001057600080fd5b50600436106100415760003560e01c80631a4c67501461004657806356ca623e1461035d5780639811bdeb1461041a575b600080fd5b61035b600480360360a081101561005c57600080fd5b810190808035906020019064010000000081111561007957600080fd5b82018360208201111561008b57600080fd5b803590602001918460018302840111640100000000831117156100ad57600080fd5b91908080601f016020809104026020016040519081016040528093929190818152602001838380828437600081840152601f19601f8201169050808301925050505050505091929192908035906020019064010000000081111561011057600080fd5b82018360208201111561012257600080fd5b8035906020019184600183028401116401000000008311171561014457600080fd5b91908080601f016020809104026020016040519081016040528093929190818152602001838380828437600081840152601f19601f820116905080830192505050505050509192919290803590602001906401000000008111156101a757600080fd5b8201836020820111156101b957600080fd5b803590602001918460018302840111640100000000831117156101db57600080fd5b91908080601f016020809104026020016040519081016040528093929190818152602001838380828437600081840152601f19601f8201169050808301925050505050505091929192908035906020019064010000000081111561023e57600080fd5b82018360208201111561025057600080fd5b8035906020019184600183028401116401000000008311171561027257600080fd5b91908080601f016020809104026020016040519081016040528093929190818152602001838380828437600081840152601f19601f820116905080830192505050505050509192919290803590602001906401000000008111156102d557600080fd5b8201836020820111156102e757600080fd5b8035906020019184600183028401116401000000008311171561030957600080fd5b91908080601f016020809104026020016040519081016040528093929190818152602001838380828437600081840152601f19601f820116905080830192505050505050509192919290505050610691565b005b61039f6004803603602081101561037357600080fd5b81019080803573ffffffffffffffffffffffffffffffffffffffff169060200190929190505050610c8c565b6040518080602001828103825283818151815260200191508051906020019080838360005b838110156103df5780820151818401526020810190506103c4565b50505050905090810190601f16801561040c5780820380516001836020036101000a031916815260200191505b509250505060405180910390f35b6104666004803603604081101561043057600080fd5b81019080803573ffffffffffffffffffffffffffffffffffffffff16906020019092919080359060200190929190505050610d53565b60405180806020018060200180602001806020018060200186810386528b818151815260200191508051906020019080838360005b838110156104b657808201518184015260208101905061049b565b50505050905090810190601f1680156104e35780820380516001836020036101000a031916815260200191505b5086810385528a818151815260200191508051906020019080838360005b8381101561051c578082015181840152602081019050610501565b50505050905090810190601f1680156105495780820380516001836020036101000a031916815260200191505b50868103845289818151815260200191508051906020019080838360005b83811015610582578082015181840152602081019050610567565b50505050905090810190601f1680156105af5780820380516001836020036101000a031916815260200191505b50868103835288818151815260200191508051906020019080838360005b838110156105e85780820151818401526020810190506105cd565b50505050905090810190601f1680156106155780820380516001836020036101000a031916815260200191505b50868103825287818151815260200191508051906020019080838360005b8381101561064e578082015181840152602081019050610633565b50505050905090810190601f16801561067b5780820380516001836020036101000a031916815260200191505b509a505050505050505050505060405180910390f35b61069961109b565b6040518060e001604052806040518060600160405280602a81526020016111c1602a913981526020016040518060600160405280602a8152602001611197602a913981526020016040518060600160405280602a8152602001611269602a913981526020016040518060600160405280602a8152602001611215602a913981526020016040518060600160405280602a8152602001611293602a913981526020016040518060600160405280602a815260200161123f602a913981526020016040518060600160405280602a81526020016111eb602a9139815250905060008090505b60078110156108ec5761078e33610c8c565b6040516020018082805190602001908083835b602083106107c457805182526020820191506020810190506020830392506107a1565b6001836020036101000a0380198251168184511680821785525050505050509050019150506040516020818303038152906040528051906020012082826007811061080b57fe5b60200201516040516020018082805190602001908083835b602083106108465780518252602082019150602081019050602083039250610823565b6001836020036101000a03801982511681845116808217855250505050505090500191505060405160208183030381529060405280519060200120146108df5760008090503373ffffffffffffffffffffffffffffffffffffffff167f1fd8a6424996fcb73e71380685f86d34feb317dc811892630fd77cc70046e06a82604051808215151515815260200191505060405180910390a2505b808060010191505061077c565b506108f56110c2565b6040518060a001604052808881526020018781526020018681526020018581526020018481525090506000803373ffffffffffffffffffffffffffffffffffffffff1673ffffffffffffffffffffffffffffffffffffffff168152602001908152602001600020819080600181540180825580915050906001820390600052602060002090600502016000909192909190915060008201518160000190805190602001906109a49291906110f1565b5060208201518160010190805190602001906109c19291906110f1565b5060408201518160020190805190602001906109de9291906110f1565b5060608201518160030190805190602001906109fb9291906110f1565b506080820151816004019080519060200190610a189291906110f1565b505050503373ffffffffffffffffffffffffffffffffffffffff167f5e15d2cd34569dde9bf8eb875cf30ac572a7492ebe12f1d06a0e1c72248c64e1888888888860405180806020018060200180602001806020018060200186810386528b818151815260200191508051906020019080838360005b83811015610aa9578082015181840152602081019050610a8e565b50505050905090810190601f168015610ad65780820380516001836020036101000a031916815260200191505b5086810385528a818151815260200191508051906020019080838360005b83811015610b0f578082015181840152602081019050610af4565b50505050905090810190601f168015610b3c5780820380516001836020036101000a031916815260200191505b50868103845289818151815260200191508051906020019080838360005b83811015610b75578082015181840152602081019050610b5a565b50505050905090810190601f168015610ba25780820380516001836020036101000a031916815260200191505b50868103835288818151815260200191508051906020019080838360005b83811015610bdb578082015181840152602081019050610bc0565b50505050905090810190601f168015610c085780820380516001836020036101000a031916815260200191505b50868103825287818151815260200191508051906020019080838360005b83811015610c41578082015181840152602081019050610c26565b50505050905090810190601f168015610c6e5780820380516001836020036101000a031916815260200191505b509a505050505050505050505060405180910390a250505050505050565b60608060146040519080825280601f01601f191660200182016040528015610cc35781602001600182028038833980820191505090505b50905060008090505b6014811015610d49578060130360080260020a8473ffffffffffffffffffffffffffffffffffffffff1681610cfd57fe5b0460f81b828281518110610d0d57fe5b60200101907effffffffffffffffffffffffffffffffffffffffffffffffffffffffffffff1916908160001a9053508080600101915050610ccc565b5080915050919050565b60006020528160005260406000208181548110610d6c57fe5b906000526020600020906005020160009150915050806000018054600181600116156101000203166002900480601f016020809104026020016040519081016040528092919081815260200182805460018160011615610100020316600290048015610e195780601f10610dee57610100808354040283529160200191610e19565b820191906000526020600020905b815481529060010190602001808311610dfc57829003601f168201915b505050505090806001018054600181600116156101000203166002900480601f016020809104026020016040519081016040528092919081815260200182805460018160011615610100020316600290048015610eb75780601f10610e8c57610100808354040283529160200191610eb7565b820191906000526020600020905b815481529060010190602001808311610e9a57829003601f168201915b505050505090806002018054600181600116156101000203166002900480601f016020809104026020016040519081016040528092919081815260200182805460018160011615610100020316600290048015610f555780601f10610f2a57610100808354040283529160200191610f55565b820191906000526020600020905b815481529060010190602001808311610f3857829003601f168201915b505050505090806003018054600181600116156101000203166002900480601f016020809104026020016040519081016040528092919081815260200182805460018160011615610100020316600290048015610ff35780601f10610fc857610100808354040283529160200191610ff3565b820191906000526020600020905b815481529060010190602001808311610fd657829003601f168201915b505050505090806004018054600181600116156101000203166002900480601f0160208091040260200160405190810160405280929190818152602001828054600181600116156101000203166002900480156110915780601f1061106657610100808354040283529160200191611091565b820191906000526020600020905b81548152906001019060200180831161107457829003601f168201915b5050505050905085565b6040518060e001604052806007905b60608152602001906001900390816110aa5790505090565b6040518060a0016040528060608152602001606081526020016060815260200160608152602001606081525090565b828054600181600116156101000203166002900490600052602060002090601f016020900481019282601f1061113257805160ff1916838001178555611160565b82800160010185558215611160579182015b8281111561115f578251825591602001919060010190611144565b5b50905061116d9190611171565b5090565b61119391905b8082111561118f576000816000905550600101611177565b5090565b9056fe307842443630323638363235416135383262323262623231623346334344433136354236393632446533307846453731333039383746393738343666463064343734366439613141383135354462384630326437307839633033656236394639633439453534644537344664303235353162663461354535373333463435307845664235373135416431443437463935464630463461343334363841643637304462613539626338307838376431326639303730443238313437636145653346624434433733303742436634373145434146307861456462643631443137374631373036333734373565373131344335413246374339343944356266307835373144354537463937323331374162666537383332633942343537313732343037373733304636a265627a7a72315820976c49983417dbfb59e22b55f3c1701c8e268c3360fc81e2133b75519938e9c564736f6c63430005100032",
  "source": "pragma solidity >=0.5.12 <0.7.0;\r\n\r\ncontract DiplomaStore {\r\n    struct Diploma {\r\n        string cnp; //cnp-ul studentului\r\n        string city; //oras universitate\r\n        string emailStudent; //email student\r\n        string degree; //tipul de diploma\r\n        string hashValue; //valoarea returnata de IPFS pe care o vom adauga pe Blockchain pe langa informatiile respective\r\n    }\r\n    mapping(address => Diploma[]) public university; //mapam diploma de universitate\r\n\r\n    event LogDiplomaAdded(\r\n        address indexed _university,\r\n        string _cnp,\r\n        string _city,\r\n        string _emailStudent,\r\n        string _degree,\r\n        string _hashValue\r\n    );\r\n\r\n    //bool private stopped = false;\r\n    event LogEmergencyStop(\r\n        address indexed _university,\r\n        bool _stop\r\n    );\r\n\r\n    //  modifier stopInEmergency {\r\n    //     require(!stopped);\r\n    //     _;\r\n    // }\r\n    //mapping(address => bool) public addressList;\r\n\r\n    function toString(address x) public returns (string memory) {\r\n        bytes memory b = new bytes(20);\r\n        for (uint i = 0; i < 20; i++)\r\n            b[i] = byte(uint8(uint(x) / (2**(8*(19 - i)))));\r\n        return string(b);\r\n    }\r\n\r\n    function addDiploma(string memory _cnp, string memory _city, string memory _emailStudent, string memory _degree, string memory _hashValue) public {\r\n        //string memory senderAddress = toString(msg.sender);\r\n        string[7] memory addresses = ['0xFE7130987F97846fF0d4746d9a1A8155Db8F02d7',\r\n                          '0xBD60268625Aa582b22bb21b3F3CDC165B6962De3',\r\n                          '0xaEdbd61D177F170637475e7114C5A2F7C949D5bf',\r\n                          '0xEfB5715Ad1D47F95FF0F4a43468Ad670Dba59bc8',\r\n                          '0x571D5E7F972317Abfe7832c9B4571724077730F6',\r\n                          '0x87d12f9070D28147caEe3FbD4C7307BCf471ECAF',\r\n                          '0x9c03eb69F9c49E54dE74Fd02551bf4a5E5733F45'];\r\n        for(uint i = 0; i < addresses.length; i++){\r\n            if(keccak256(abi.encodePacked(addresses[i])) != keccak256(abi.encodePacked(toString(msg.sender)))){\r\n                bool stopped = false;\r\n                emit LogEmergencyStop(msg.sender, stopped);\r\n            }\r\n        }\r\n        Diploma memory diploma = Diploma(_cnp, _city, _emailStudent, _degree, _hashValue);\r\n        \r\n        university[msg.sender].push(diploma);\r\n\r\n        emit LogDiplomaAdded(msg.sender, _cnp, _city, _emailStudent, _degree, _hashValue);\r\n\r\n    }\r\n    // function emergencyStop(bool _stop) public onlyUniversity {\r\n    //     stopped = _stop;\r\n    //     emit LogEmergencyStop(owner, _stop);\r\n    // }\r\n//     function getDiploma(address _university, uint _index) public view returns (\r\n//         uint _cnp,\r\n//         string memory _city,\r\n//         string memory _emailStudent,\r\n//         string memory _degree,\r\n//         string memory _hashValue\r\n//     ){\r\n//         Diploma storage diploma = university[_university][_index];\r\n//         return (\r\n//             diploma.hashValue,\r\n//             diploma.cnp,\r\n//             diploma.city,\r\n//             diploma.emailStudent,\r\n//             diploma.degree\r\n//         )\r\n//     }\r\n// }\r\n}",
  "sourcePath": "F:\\FACULTATE\\AN4\\LicentaNodeJS\\contracts\\DiplomaStore.sol",
  "compiler": {
    "name": "solc",
    "version": "0.5.16+commit.9c3226ce.Emscripten.clang"
  },
  "schemaVersion": "3.2.0",
  "updatedAt": "2020-06-10T21:06:56.320Z",
  "networkType": "ethereum",
  "devdoc": {
    "methods": {}
  },
  "userdoc": {
    "methods": {}
  }
}