{
  "contractName": "DiplomaStore",
  "abi": [
    {
      "anonymous": false,
      "inputs": [
        {
          "indexed": true,
          "internalType": "address",
          "name": "_university",
          "type": "address"
        },
        {
          "indexed": false,
          "internalType": "string",
          "name": "_cnp",
          "type": "string"
        },
        {
          "indexed": false,
          "internalType": "string",
          "name": "_city",
          "type": "string"
        },
        {
          "indexed": false,
          "internalType": "string",
          "name": "_emailStudent",
          "type": "string"
        },
        {
          "indexed": false,
          "internalType": "string",
          "name": "_degree",
          "type": "string"
        },
        {
          "indexed": false,
          "internalType": "string",
          "name": "_hashValue",
          "type": "string"
        }
      ],
      "name": "LogDiplomaAdded",
      "type": "event"
    },
    {
      "anonymous": false,
      "inputs": [
        {
          "indexed": true,
          "internalType": "address",
          "name": "_university",
          "type": "address"
        },
        {
          "indexed": false,
          "internalType": "bool",
          "name": "_stop",
          "type": "bool"
        }
      ],
      "name": "LogEmergencyStop",
      "type": "event"
    },
    {
      "constant": true,
      "inputs": [
        {
          "internalType": "address",
          "name": "",
          "type": "address"
        },
        {
          "internalType": "uint256",
          "name": "",
          "type": "uint256"
        }
      ],
      "name": "university",
      "outputs": [
        {
          "internalType": "string",
          "name": "cnp",
          "type": "string"
        },
        {
          "internalType": "string",
          "name": "city",
          "type": "string"
        },
        {
          "internalType": "string",
          "name": "emailStudent",
          "type": "string"
        },
        {
          "internalType": "string",
          "name": "degree",
          "type": "string"
        },
        {
          "internalType": "string",
          "name": "hashValue",
          "type": "string"
        }
      ],
      "payable": false,
      "stateMutability": "view",
      "type": "function"
    },
    {
      "constant": false,
      "inputs": [
        {
          "internalType": "string",
          "name": "_cnp",
          "type": "string"
        },
        {
          "internalType": "string",
          "name": "_city",
          "type": "string"
        },
        {
          "internalType": "string",
          "name": "_emailStudent",
          "type": "string"
        },
        {
          "internalType": "string",
          "name": "_degree",
          "type": "string"
        },
        {
          "internalType": "string",
          "name": "_hashValue",
          "type": "string"
        }
      ],
      "name": "addDiploma",
      "outputs": [],
      "payable": false,
      "stateMutability": "nonpayable",
      "type": "function"
    }
  ],
  "bytecode": "0x60806040526000600160006101000a81548160ff021916908315150217905550336001806101000a81548173ffffffffffffffffffffffffffffffffffffffff021916908373ffffffffffffffffffffffffffffffffffffffff16021790555034801561006b57600080fd5b50610e8d8061007b6000396000f3fe608060405234801561001057600080fd5b50600436106100365760003560e01c80631a4c67501461003b5780639811bdeb14610352575b600080fd5b610350600480360360a081101561005157600080fd5b810190808035906020019064010000000081111561006e57600080fd5b82018360208201111561008057600080fd5b803590602001918460018302840111640100000000831117156100a257600080fd5b91908080601f016020809104026020016040519081016040528093929190818152602001838380828437600081840152601f19601f8201169050808301925050505050505091929192908035906020019064010000000081111561010557600080fd5b82018360208201111561011757600080fd5b8035906020019184600183028401116401000000008311171561013957600080fd5b91908080601f016020809104026020016040519081016040528093929190818152602001838380828437600081840152601f19601f8201169050808301925050505050505091929192908035906020019064010000000081111561019c57600080fd5b8201836020820111156101ae57600080fd5b803590602001918460018302840111640100000000831117156101d057600080fd5b91908080601f016020809104026020016040519081016040528093929190818152602001838380828437600081840152601f19601f8201169050808301925050505050505091929192908035906020019064010000000081111561023357600080fd5b82018360208201111561024557600080fd5b8035906020019184600183028401116401000000008311171561026757600080fd5b91908080601f016020809104026020016040519081016040528093929190818152602001838380828437600081840152601f19601f820116905080830192505050505050509192919290803590602001906401000000008111156102ca57600080fd5b8201836020820111156102dc57600080fd5b803590602001918460018302840111640100000000831117156102fe57600080fd5b91908080601f016020809104026020016040519081016040528093929190818152602001838380828437600081840152601f19601f8201169050808301925050505050505091929192905050506105c9565b005b61039e6004803603604081101561036857600080fd5b81019080803573ffffffffffffffffffffffffffffffffffffffff16906020019092919080359060200190929190505050610a0c565b60405180806020018060200180602001806020018060200186810386528b818151815260200191508051906020019080838360005b838110156103ee5780820151818401526020810190506103d3565b50505050905090810190601f16801561041b5780820380516001836020036101000a031916815260200191505b5086810385528a818151815260200191508051906020019080838360005b83811015610454578082015181840152602081019050610439565b50505050905090810190601f1680156104815780820380516001836020036101000a031916815260200191505b50868103845289818151815260200191508051906020019080838360005b838110156104ba57808201518184015260208101905061049f565b50505050905090810190601f1680156104e75780820380516001836020036101000a031916815260200191505b50868103835288818151815260200191508051906020019080838360005b83811015610520578082015181840152602081019050610505565b50505050905090810190601f16801561054d5780820380516001836020036101000a031916815260200191505b50868103825287818151815260200191508051906020019080838360005b8381101561058657808201518184015260208101905061056b565b50505050905090810190601f1680156105b35780820380516001836020036101000a031916815260200191505b509a505050505050505050505060405180910390f35b3373ffffffffffffffffffffffffffffffffffffffff166001809054906101000a900473ffffffffffffffffffffffffffffffffffffffff1673ffffffffffffffffffffffffffffffffffffffff161461066e576040517f08c379a0000000000000000000000000000000000000000000000000000000008152600401808060200182810382526030815260200180610e296030913960400191505060405180910390fd5b610676610d54565b6040518060a001604052808781526020018681526020018581526020018481526020018381525090506000803373ffffffffffffffffffffffffffffffffffffffff1673ffffffffffffffffffffffffffffffffffffffff16815260200190815260200160002081908060018154018082558091505090600182039060005260206000209060050201600090919290919091506000820151816000019080519060200190610725929190610d83565b506020820151816001019080519060200190610742929190610d83565b50604082015181600201908051906020019061075f929190610d83565b50606082015181600301908051906020019061077c929190610d83565b506080820151816004019080519060200190610799929190610d83565b505050503373ffffffffffffffffffffffffffffffffffffffff167f5e15d2cd34569dde9bf8eb875cf30ac572a7492ebe12f1d06a0e1c72248c64e1878787878760405180806020018060200180602001806020018060200186810386528b818151815260200191508051906020019080838360005b8381101561082a57808201518184015260208101905061080f565b50505050905090810190601f1680156108575780820380516001836020036101000a031916815260200191505b5086810385528a818151815260200191508051906020019080838360005b83811015610890578082015181840152602081019050610875565b50505050905090810190601f1680156108bd5780820380516001836020036101000a031916815260200191505b50868103845289818151815260200191508051906020019080838360005b838110156108f65780820151818401526020810190506108db565b50505050905090810190601f1680156109235780820380516001836020036101000a031916815260200191505b50868103835288818151815260200191508051906020019080838360005b8381101561095c578082015181840152602081019050610941565b50505050905090810190601f1680156109895780820380516001836020036101000a031916815260200191505b50868103825287818151815260200191508051906020019080838360005b838110156109c25780820151818401526020810190506109a7565b50505050905090810190601f1680156109ef5780820380516001836020036101000a031916815260200191505b509a505050505050505050505060405180910390a2505050505050565b60006020528160005260406000208181548110610a2557fe5b906000526020600020906005020160009150915050806000018054600181600116156101000203166002900480601f016020809104026020016040519081016040528092919081815260200182805460018160011615610100020316600290048015610ad25780601f10610aa757610100808354040283529160200191610ad2565b820191906000526020600020905b815481529060010190602001808311610ab557829003601f168201915b505050505090806001018054600181600116156101000203166002900480601f016020809104026020016040519081016040528092919081815260200182805460018160011615610100020316600290048015610b705780601f10610b4557610100808354040283529160200191610b70565b820191906000526020600020905b815481529060010190602001808311610b5357829003601f168201915b505050505090806002018054600181600116156101000203166002900480601f016020809104026020016040519081016040528092919081815260200182805460018160011615610100020316600290048015610c0e5780601f10610be357610100808354040283529160200191610c0e565b820191906000526020600020905b815481529060010190602001808311610bf157829003601f168201915b505050505090806003018054600181600116156101000203166002900480601f016020809104026020016040519081016040528092919081815260200182805460018160011615610100020316600290048015610cac5780601f10610c8157610100808354040283529160200191610cac565b820191906000526020600020905b815481529060010190602001808311610c8f57829003601f168201915b505050505090806004018054600181600116156101000203166002900480601f016020809104026020016040519081016040528092919081815260200182805460018160011615610100020316600290048015610d4a5780601f10610d1f57610100808354040283529160200191610d4a565b820191906000526020600020905b815481529060010190602001808311610d2d57829003601f168201915b5050505050905085565b6040518060a0016040528060608152602001606081526020016060815260200160608152602001606081525090565b828054600181600116156101000203166002900490600052602060002090601f016020900481019282601f10610dc457805160ff1916838001178555610df2565b82800160010185558215610df2579182015b82811115610df1578251825591602001919060010190610dd6565b5b509050610dff9190610e03565b5090565b610e2591905b80821115610e21576000816000905550600101610e09565b5090565b9056fe506572736f616e61206e7520706f617465206578656375746120636f6e7472616374756c20696e74656c6967656e742ea265627a7a7231582084ce75fd4f138af9dbc363b6a35e940f7aae497a691c1d7ffb43264d7e6b394164736f6c63430005100032",
  "source": "pragma solidity >=0.5.12 <0.7.0;\r\n\r\ncontract DiplomaStore {\r\n\r\n    struct Diploma {\r\n        string cnp; //cnp-ul studentului\r\n        string city; //oras universitate\r\n        string emailStudent; //email student\r\n        string degree; //tipul de diploma\r\n        string hashValue; //valoarea returnata de IPFS pe care o vom adauga pe Blockchain pe langa informatiile respective\r\n    }\r\n    mapping(address => Diploma[]) public university; //mapam diploma de universitate\r\n\r\n    bool stopped = false;\r\n\r\n    event LogDiplomaAdded(\r\n        address indexed _university,\r\n        string _cnp,\r\n        string _city,\r\n        string _emailStudent,\r\n        string _degree,\r\n        string _hashValue\r\n    );\r\n\r\n    //bool private stopped = false;\r\n    event LogEmergencyStop(\r\n        address indexed _university,\r\n        bool _stop\r\n    );\r\n\r\n    \r\n    address owner = msg.sender;\r\n    function addDiploma(string memory _cnp, string memory _city, string memory _emailStudent, string memory _degree, string memory _hashValue) public {\r\n        \r\n        require(owner == msg.sender, \"Persoana nu poate executa contractul inteligent.\");\r\n        Diploma memory diploma = Diploma(_cnp, _city, _emailStudent, _degree, _hashValue);\r\n        \r\n        university[msg.sender].push(diploma);\r\n\r\n        emit LogDiplomaAdded(msg.sender, _cnp, _city, _emailStudent, _degree, _hashValue);\r\n\r\n    }\r\n\r\n}",
  "sourcePath": "F:\\FACULTATE\\AN4\\LicentaNodeJS\\contracts\\DiplomaStore.sol",
  "compiler": {
    "name": "solc",
    "version": "0.5.16+commit.9c3226ce.Emscripten.clang"
  },
  "schemaVersion": "3.2.0",
  "updatedAt": "2020-07-15T21:49:30.488Z",
  "networkType": "ethereum",
  "devdoc": {
    "methods": {}
  },
  "userdoc": {
    "methods": {}
  }
}